:03000000020DDD11
:0C0DDD00787FE4F6D8FD758128020E2412
:100DE900020003E493A3F8E493A34003F68001F21D
:100DF90008DFF48029E493A3F85407240CC8C3330B
:100E0900C4540F4420C8834004F456800146F6DFD9
:100E1900E4800B01020408102040809011BEE47E9A
:100E2900019360BCA3FF543F30E509541FFEE493CE
:100E3900A360010ECF54C025E060A840B8E493A395
:100E4900FAE493A3F8E493A3C8C582C8CAC583CAC0
:100E5900F0A3C8C582C8CAC583CADFE9DEE780BE78
:0111BE000030
:100A2C00040201040201050201060202060202068A
:100A3C000202070201060206060201050201040277
:100A4C000105020205020205020207020206020665
:100A5C00050202040202030201040204030201045F
:100A6C00020203020202020201020201020D04024E
:100A7C00010502010602010702040202020402023D
:100A8C000302080102010602020702020602020525
:100A9C00020204020204020203020204020207021E
:100AAC000206020205020204020107020306020208
:100ABC0005020204020105021100000002030107F5
:100ACC0002010203010702040902010502010602E8
:100ADC0001070201060204090201060203050201D4
:100AEC0006020105020409020103020104020105C8
:100AFC0002010402040000000602010702010802C0
:100B0C0004080202030202060206060201050201A3
:100B1C0004020103020603020104020105020102A0
:100B2C00020600000001020102020103020104029C
:100B3C000105020106020107020101030209020478
:100B4C0001030401030401030207020201030C0068
:100B5C000000000000FF0A2CFF0AC8FF0B04FF0B6B
:100B6C0031F2F3F5F5F6F7F8F9F9FAFAFBFBFCFCC0
:100B7C00FCFDFDFDFDFEFEFEFEFEFEFEFF42C1176E
:100B8C00B6D0D1B621E18CD868E95B8FEE446BB45A
:090B9C00F42D4777A2B6DAFA162F
:03000B0002000EE2
:0D000E00C28CB2B285188C851A8AD28C3251
:1010CB00ED75F007A42F14FF900B6D93F518F58CAD
:0910DB00EF900B8993F51AF58AD8
:0110E40022E9
:0D11B100E4F5198B158A168917751B0122AC
:03126700C28C2214
:03126A00D28C2201
:10107900EF75F003A4245EF582E4340BF583E49361
:0C108900FB740193FA740293F90211B198
:100EEC00C20BE51645174515606D151BE51B706AA1
:100EFC00AB15AA16A917851982F583120D35FF704B
:100F0C000BF515F516F517121267C322D20BE5195E
:100F1C00F582758300A3A3AB15AA16A917120D357C
:100F2C00F51BEFB40907121267C20B8022AB15AA8E
:100F3C0016A917851982758300120D35FFE519F571
:100F4C0082758300A3120D35FD1210CB12126A7438
:0C0F5C00032519F5198003121267A20B7F
:010F68002266
:1010FC005389FC438901D2A9D2AFC28C75150075F6
:06110C0016007517002219
:0B11C900EF1FAC0670011E4C70F622F8
:0911EA007528B075273C0211289C
:10112800C28E5389CF43891085278D85288BD2ABF2
:05113800D2AFD28E22AF
:0B11D400C28EC2AB858D27858B2822C0
:0B11DF001B5B313B3166001B5B4A00CC
:100FA40030072BC207AB24AA25A926AE02AF01EF56
:100FB4004E6005120D1C7003D20622AB240526E5F3
:0F0FC40026AA257002052514F9120D1CF5992295
:04125F00A206B3220E
:0300230002118740
:0E118700309905C299D20732309802C29832D0
:10105C002008191211D45389CF438920758DF3754B
:0D106C008BF3D28EC2ABD2ACD2AFD2082231
:0E11950030080A1211A3C2AC121128C208229F
:101112007598D0C207D20675240075250075260081
:06112200C208E4F52322DF
:1010E5008B1C8A1D891E1211A3C206D207851C24DA
:0710F500851D25851E262242
:101163007BFF7A1179DF1210E57BFF7A1179E602B2
:0211730010E585
:0E11A30012105C12125F5005120FA480F6228B
:10109500E4FF3009152090010F2091027F02209274
:0A10A500027F032093027F04C209BA
:0110AF00221E
:1010B000E4FF300A152094010F2095027F0220964C
:0A10C000027F032097027F04C20A9A
:0110CA002203
:10002600BDD0ABF6440D0A00312B322B332B342BCB
:10003600352B372B382B392B3130203D203F0D0AFD
:1000460041292035352020422920313030202043D7
:1000560029203439202044292034340D0A00BDD605
:10006600A4A3AC4FA5E6A46AB8EAA475AABAA6D119
:10007600AE763F0D0A412920B3AFBA61B3C720421D
:100086002920AE7DBCA2A4A420432920B3C5A4DFA9
:10009600AE6120442920B3B0BEE5ADB70D0A00A479
:1000A600B5A67EAC4F3F0D0A41292031303020A63F
:1000B6007E204229203230313120A67E204329205D
:1000C6003230313220A67E20442920393920A67EBE
:1000D6000D0A00352034203320322031205F0D0AEE
:1000E600AEDABEDAA548A457AABABCC6A6432C5FA8
:1000F600AABABCC6A672B3CCA6B3A569AFE0AC4F8C
:100106000D0A412920302042292034204329203756
:1001160020442920380D0A00BDD0B0DDB36FAC4FA6
:10012600ADFEB3A1A740AB7EAABABA71A6B13F0D88
:100136000A412920A8BAA8C7A67EA141A7DAADCC54
:10014600A440B05FB06CAABAA46BABC4202042290D
:1001560020A470B8EAA46BABC4A656AB65BDC42098
:1001660020432920B552A751A448A9642020442938
:1001760020A7DAA569AFE0A4A3B77CB752A7410DC3
:100186000A00B171A5C1B0EA3538A67EA548A8D344
:10019600A141B1F6A6CBC1C9A4A4A5E6A46AC4B977
:1001A600B458B3F53F3F0D0A41292031352D31377B
:1001B600B3F52042292031382D3230B3F5204329BA
:1001C6002032312D3233B3F52044292032342D32FA
:1001D60036B3F50D0A00B74CB342B27ABEF7A64065
:1001E600A6B3B458ADD34C61623F0D0A41292039FC
:1001F6003920204229203439202043292031332038
:100206002044292031300D0A00A5DFA965A46ABF64
:10021600EFA640BFEFA558B458A4483F0D0A4129A0
:1002260020323235204229203233342043292032ED
:1002360034352044292031313320A4480D0A00BD2D
:10024600D0ABF6430D0A00A6D1A57EB3A3AABEB9CC
:1002560044A141A578C657A6B3ADD3AAFCA8BDA4B0
:1002660073A143BDD0B0DDAAFCA8BDA473A662AD40
:10027600FEADD3BFA4A5ABB0DA3F0D0A412920AB32
:100286006EA7EB20422920A578AA4620432920B94B
:10029600C5B87120442920B6B3AA4C0D0A0050698E
:1002A60070656C696E696E672063616E20696D703A
:1002B600726F76653F0D0A4129205468726F756723
:1002C6006870757420204229204350492020432914
:1002D600204461746120726174652020442920489D
:1002E600617A617264730D0A00AAF7A5BFA4E9AA30
:1002F600BAB1B5AF5AA448AC4F3F0D0A412920AA5E
:10030600F7A5BFADF520422920AAF7A5BFAEA620C6
:10031600432920AAF7A5BFA86B20442920B169A6C6
:10032600A8BF410D0A00A455A643BDD6A4A3AC4F51
:10033600B773A448BA71A4E23F3F0D0A412920AD24
:10034600B3C2A7A67720422920A8F4A4E5B8A9201D
:10035600432920ADA7A569ACB020442920A7F5A95B
:1003660076B2B10D0A0032303132A67EC160B2CE0D
:10037600A46ABFEFA141B0EAA5C1C4D2A142A5C1FA
:10038600B669C4D2A142BFCBA5C1C4D2AABAC160C4
:10039600B2CEADD4BFEFA448A4C0A74FAC4F3A0D20
:1003A6000A412920A764B4B0B871A142BDB2AD5EBE
:1003B600A4E5A142A7BAB7A1B7EC2020422920B0F4
:1003C600A8AD5EA445A142BDB2AD5EA4E5A142AA18
:1003D6004CB7E7B6AF0D0A422920A764B4B0B8718E
:1003E600A142C4ACB9C5A5FEA142AA4CB7E7B6AFB7
:1003F6002020442920B0A8AD5EA445A142BDB2ADDF
:100406005EA4E5A142A7BAB7A1B7EC0D0A00ADFEFE
:10041600ADD3BA74BAE2AA6BBDC6C2F8ABD7A4A371
:10042600AC4F4F286E6C6F676E290D0A41292071FB
:100436007569636B20736F72742042292073656C33
:10044600656374696F6E20736F727420432920721E
:100456006164697820736F7274204429206D657217
:10046600676520736F72740D0A00BDD0ABF6B9EFE5
:10047600A4E8AABAC1E40D0A00A455A643ADFEA499
:1004860040ADD3B0DDC344AC4F646563696461625B
:100496006C653F0D0A41292048414C5420422920D1
:1004A6005043500D0A432920544D2065710D0A44CE
:1004B6002920636C697175652070726F626C656D59
:1004C6000D0A00B36FB76DB5AAB943C0B8AC4FAD4E
:1004D600FEA440B2D5B0B5AABA203D773D3F0D0A7D
:1004E6004129203120422920322043292031312040
:1004F60043292031320D0A00A455ADB1ADFEA4400A
:10050600ADD3AD5EA4E5B3E6A672ABF7BFF9ADF920
:10051600213F0D0A412920636F6C6F7572204229B5
:1005260020657069736F6465204329206469616C76
:100536006F672044292066696E6E616C790D0A002A
:10054600BDD0A4A3AD6EABF62121203D773D0D0AAB
:1005560000ADFEA440ADD3A4A3AC4FA578C657AB5F
:100566004FA87CC3FEB0CAAAAB3F0D0A412920A5FD
:1005760078C657B6C2BAB520422920C4E5AAE1B961
:100586005FA76BC24420432920A6CAA842B34420D1
:10059600442920ACEFA473A5D20D0A00BDD0ABF65A
:1005A600410D0A00A5E6A46AB8EAA475A46ABEC706
:1005B600B3A1BEC7A5CDB371C3D1BEC7A4C0C16028
:1005C600A640A6B3A668A4D63F0D0A412920313518
:1005D6002020422920313820204329203230202073
:1005E60044292032320D0A00312B31203D3F0D0ABD
:1005F600412920312020422920322020432920333E
:100606002020442920340D0A00A6B3A8C7AD5EA455
:10061600E5A672AC4FC5BCB8DCA74321212020A4B7
:1006260055ADB1ADFEA440ADD3A657A672A6B3B0E4
:10063600DDC3443F3F0D0A41292057696C6C792080
:100646004229204761727920432920457269632037
:100656004429204A696C6C0D0A00B36FA6B8B14DE7
:10066600C344ADFEA440BAD8B943C0B8A6B3A55892
:10067600B27BA1480D0A4129204C4F4C204229202B
:10068600AA5AC3C3B943C0B820432920A4D3B9AAE0
:10069600B946A44820442920A5B4A661B9AB0D0AE1
:1006A60000A874BEC7B77CB77CAAF8AC4FA86BACE1
:1006B6004FA46BA1480D0A412920A86B09422920A5
:1006C600A46B20432920ACD2AB4420442920ACD2D1
:1006D600AC4F0D0A00FF00260400FF002E0300FFAA
:1006E60000640400FF00A50300FF00D90100FF011C
:1006F6001E0303FF01880200FF01DC0400FF020F56
:100706000400FF02450300FF024D0300FF02A4019F
:1007160000FF02EF0200FF032C0400FF036C04003D
:10072600FF04140200FF04700500FF011E0101FF13
:10073600047F0400FF04C90300FF04FE0400FF0554
:10074600460500FF05570300FF05A20100FF05AAA5
:100756000300FF05EE0200FF011E0202FF060F0165
:0B07660000FF06600400FF06A7020071
:04126300E4F51F226D
:10117500E51F2401FFE433FE7C007D1E120D628D08
:021185001F2227
:100FF800121163E51F75F005A424DBF582E43406BD
:10100800F583E493FB740193FA740293F91210E5E3
:031018000211952D
:10113D00E51F75F005A424DEF582E43406F583E49D
:03114D0093FF22EB
:10115000E51F75F005A424DFF582E43406F583E489
:0311600093FF22D8
:05001E00D2B4D2B522AE
:05124100D2B6D2B72275
:05124600D2B4C2B52284
:05124B00D2B6C2B7227B
:05125000C2B4D2B5227A
:05125500C2B6D2B72271
:0911F300A2A44003D38001C32231
:0911FC00A2A54003D38001C32227
:09120500A2A64003D38001C3221C
:09120E00A2A74003D38001C32212
:100BA50041004200430044004D6F76696E67206244
:100BB50061636B2074686520636172732E2E2E0D40
:100BC5000A0047756573732047616D6521212041D2
:100BD500726520796F752072656164793F0D0A50E1
:100BE50072657373204120666F72207374616E6441
:100BF5006172642067616D652E2E2E0D0A50726537
:100C05007373204220666F7220636C69636B206387
:100C15006C69636B20636C69636B206D6F64652E13
:100C25002E2E0D0A004E65787420717565737469F2
:100C35006F6E21210D0A52656164793F00506C6128
:100C450079657231206973207269676874210D0AAC
:100C550000506C61796572312069732077726F6E0F
:100C650067210D0A00506C61796572322069732025
:100C75007269676874210D0A00506C61796572327A
:100C85002069732077726F6E67210D0A00546865BD
:100C950020616E7377657220697320000D0A004329
:100CA5006C69636B20436C69636B20436C69636B90
:100CB500210D0A52656164793F0D0A00474F210DE8
:100CC5000A00506C6179657231206973207468651A
:100CD5002077696E6E6572210D0A00507265737317
:100CE500204420746F207265737461727421210D24
:100CF5000A00506C617965723220697320746865E9
:100D05002077696E6E6572210D0A00FF0BA5FF0B3A
:070D1500A7FF0BA9FF0BABC8
:0A11BF00011000011100C104C1017C
:08000300120FD312077180FBFC
:10077100300303020A26E509120DB707AD0007D1C0
:10078100010811020826030853040875050892069A
:1007910008A107092C0809530909720A09870B09DD
:1007A100CF1109E4120A151300000A26121163126F
:1007B10011951211F350071211FC5002804C7BFF6E
:1007C1007A0B79AD1210E5121195750901020A260D
:1007D10012121750081211F340031212291212209B
:1007E10050081211FC400312122F1211F3400302A0
:1007F1000A261211FC4003020A26121217400302B4
:100801000A261212204003020A26750902020A264C
:100811001211637BFF7A0B79C71210E512119575DE
:100821000903020A261210958F131210B08F14E5D6
:100831001364016005E514B40103750904E513644B
:10084100026009E51464026003020A2675090902BF
:100851000A26121267E4FF1210791211637BFF7AE4
:100861000C792A1210E51211957F1412125A75098A
:1008710005020A26121175120FF81211508F08E5A0
:10088100086003121079750F64D205750906020A12
:1008910026300506120F69020A26750904020A2686
:1008A100121267E4FF121079121163E50C14601241
:1008B10014601714601C240370217BFF7A0C7942A9
:1008C10080167BFF7A0C7956800E7BFF7A0C796A51
:1008D10080067BFF7A0C797E1210E5E50C6003B48B
:1008E10002317BFF7A0C79921210E512113DEF75FE
:1008F100F003A4240DF582E4340DF583E493FB7435
:100901000193FA740293F91210E57BFF7A0C79A135
:100911001210E5121195E50C6003B40305121235AE
:10092100800312123B750908020A261212174003AE
:10093100020A261212204003020A26750904121225
:1009410005500375091112120E50037509127F1417
:1009510080191211637BFF7A0C79A41210E5121130
:100961009575090AE4F50BF50A7F3C12125A020A41
:10097100261211637BFF7A0C79C11210E5121195D1
:1009810075090B020A261212175016121095EF6004
:1009910010AF0A050AEFC394054006E4F50A1212E6
:1009A1003512122050161210B0EF6010AF0B050B6C
:1009B100EFC394054006E4F50B12123B12120550E9
:1009C1000375091112120E505C750912805712122B
:1009D100175052121220504D1211637BFF7A0C797D
:1009E100C78013121217503D121220503812116392
:1009F1007BFF7A0C79F71210E57BFF7A0C79E01214
:100A010010E51211957509137F6412125A7F0412B1
:100A110010798011121095EF640460061210B0BFB6
:0B0A21000403E4F50912103D02101B55
:100FD30012001E1212411211EA121112121263129E
:100FE30010FCC204750D02C201D209D20AC205E483
:050FF300F509F50E22D6
:100F69001210958F1C1210B08F1DE51C7004E51D21
:100F79006028750907E51C600F12113DEFB51C05C6
:100F8900E4F50C8003750C01E51D600E12113DEFAF
:0A0F9900B51D04750C0222750C034F
:010FA300222B
:09121700E5107003D38001C3222D
:09122000E5117003D38001C32223
:0612290075100CC200224A
:06122F0075110CC2022241
:0612350075100CD200222E
:06123B0075110CD2022225
:05125A00D2038F1222F7
:10103D0085801C7F287E001211C9E51C540FFFBF4F
:0E104D000F02D209E51C54F0FFBFF002D20AD8
:01105B002272
:10101B0030041E300107C20112126A800F120EEC4F
:10102B00500A121267D201750D018003750D02C2B1
:02103B0004228D
:03001B00020E6969
:100E6900C0E0C0F0C083C082C0D075D000C000C04F
:100E790001C002C003C004C005C006C007D50F02E7
:100E8900C205D51202C203D50D02D204E510601ABB
:100E99001510E510B4090312001EE510B40B0B3050
:100EA90000051212468003121250E511601A15113D
:100EB900E511B40903121241E511B40B0B30020517
:100EC90012124B8003121255D007D006D005D00458
:100ED900D003D002D001D000D0D0D082D083D0F0BE
:030EE900D0E03224
:100D1C00BB010689828A83E0225002E722BBFE02D5
:090D2C00E32289828A83E4932208
:100D3500BB010CE58229F582E5833AF583E0225073
:100D450006E92582F8E622BBFE06E92582F8E222BD
:0D0D5500E58229F582E5833AF583E49322D7
:100D6200BC000BBE0029EF8DF084FFADF022E4CC75
:100D7200F875F008EF2FFFEE33FEEC33FCEE9DEC3E
:100D8200984005FCEE9DFE0FD5F0E9E4CEFD22ED84
:100D9200F8F5F0EE8420D21CFEADF075F008EF2FCE
:100DA200FFED33FD4007985006D5F0F222C398FDBF
:050DB2000FD5F0EA225C
:100DB700D083D082F8E4937012740193700DA3A3CB
:100DC70093F8740193F5828883E4737402936860DF
:060DD700EFA3A3A380DFDF
:00000001FF
