:03000000020EE805
:0C0EE800787FE4F6D8FD758126020F2FFC
:100EF400020003E493A3F8E493A34003F68001F211
:100F040008DFF48029E493A3F85407240CC8C333FE
:100F1400C4540F4420C8834004F456800146F6DFCD
:100F2400E4800B0102040810204080901244E47E07
:100F3400019360BCA3FF543F30E509541FFEE493C2
:100F4400A360010ECF54C025E060A840B8E493A389
:100F5400FAE493A3F8E493A3C8C582C8CAC583CAB4
:100F6400F0A3C8C582C8CAC583CADFE9DEE780BE6C
:0112440000A9
:100C4F000402010402010502010602020602020665
:100C5F000202070201060206060201050201040252
:100C6F000105020205020205020207020206020640
:100C7F00050202040202030201040204030201043A
:100C8F00020203020202020201020201020D040229
:100C9F000105020106020107020402020204020218
:100CAF000302080102010602020702020602020500
:100CBF0002020402020402020302020402020702F9
:100CCF0002060202050202040201070203060202E3
:100CDF0005020204020105021100000002030107D0
:100CEF0002010203010702040902010502010602C3
:100CFF0001070201060204090201050201060201B1
:100D0F0007020105020409020102020103020105A3
:100D1F00020104020400000006020107020108029A
:100D2F00040802020302020602060602010502017E
:100D3F00040201030206030201040201050201027B
:100D4F000206000000000000FF0C4FFF0CEBFF0D30
:100D5F0027F2F3F5F5F6F7F8F9F9FAFAFBFBFCFCD5
:100D6F00FCFDFDFDFDFEFEFEFEFEFEFEFF42C11779
:100D7F00B6D0D1B621E18CD868E95B8FEE446BB465
:090D8F00F42D4777A2B6DAFA163A
:03000B0002000EE2
:0D000E00C28CB2B285168C85188AD28C3255
:10115100ED75F007A42F14FF900D6093F516F58C33
:09116100EF900D7C93F518F58A5E
:01116A002262
:0D123700E4F5178B138A148915751901222F
:0312F900C28C2282
:0312FC00D28C226F
:1010FF00EF75F003A42454F582E4340DF583E493E3
:0C110F00FB740193FA740293F90212378A
:100F7400C20BE51445154513606B1519E519706826
:100F8400AB13AA14A915851782F583120DB1FF704E
:100F94000BF513F514F5151212F9C322D20BE5174C
:100FA400F582758300A3A3AB13AA14A915120DB17E
:100FB400F519EFB409051212F98022AB13AA14A98A
:100FC40015851782758300120DB1FFE517F582753B
:100FD4008300A3120DB1FD1211511212FC740325EA
:0A0FE40017F51780031212F9A20B93
:010FEE0022E0
:101182005389FC438901D2A9D2AFC28C7513007571
:0611920014007515002297
:0B124F00EF1FAC0670011E4C70F62271
:091270007526B075253C0211AE93
:1011AE00C28E5389CF43891085258D85268BD2AB70
:0511BE00D2AFD28E2229
:0B125A00C28EC2AB858D25858B26223D
:0B1265001B5B313B3166001B5B4A0045
:10102A0030072BC207AB1CAA1DA91EAE02AF01EFE7
:10103A004E6005120D987003D20622AB1C051EE500
:0F104A001EAA1D7002051D14F9120D98F59922AA
:0412F100A206B3227C
:0300230002120DB9
:0E120D00309905C299D20732309802C2983249
:1010E20020081912125A5389CF438920758DF3753E
:0D10F2008BF3D28EC2ABD2ACD2AFD20822AB
:0E121B0030080A121229C2AC1211AEC208220B
:101198007598D0C207D206751C00751D00751E0013
:0611A800C208E4F51B2261
:10116B008B228A238924121229C206D20785221CBC
:07117B0085231D85241E22BF
:1011E9007BFF7A12796512116B7BFF7A12796C0297
:0211F900116B78
:0E1229001210E21212F1500512102A80F62265
:10111B00E4FF3009152090010F2091027F022092ED
:0A112B00027F032093027F04C20933
:011135002297
:10113600E4FF300A152094010F2095027F022096C5
:0A114600027F032097027F04C20A13
:01115000227C
:100AD80041004200430044004D6F76696E67206212
:100AE80061636B2074686520636172732E2E2E0D0E
:100AF8000A0047756573732047616D6521212041A0
:100B0800726520796F752072656164793F0D0A50AE
:100B180072657373204120666F72207374616E640E
:100B28006172642067616D652E2E2E0D0A50726504
:100B38007373204220666F7220636C69636B206355
:100B48006C69636B20636C69636B206D6F64652EE1
:100B58002E2E0D0A004E65787420717565737469C0
:100B68006F6E21210D0A52656164793F00506C61F6
:100B780079657231206973207269676874210D0A7A
:100B880000506C61796572312069732077726F6EDD
:100B980067210D0A00506C617965723220697320F3
:100BA8007269676874210D0A00506C617965723248
:100BB8002069732077726F6E67210D0A005468658B
:100BC80020616E7377657220697320000D0A0043F7
:100BD8006C69636B20436C69636B20436C69636B5E
:100BE800210D0A52656164793F0D0A00474F210DB6
:100BF8000A00506C617965723120697320746865E8
:100C08002077696E6E6572210D0A005072657373E4
:100C1800204420746F207265737461727421210DF1
:100C28000A00506C617965723220697320746865B6
:100C38002077696E6E6572210D0A00FF0AD8FF0AD7
:070C4800DAFF0ADCFF0ADEFF
:0A124500010E00010F00C104C101F9
:0800030012105912083980FBAC
:10083900300303020AD7E509120E33087500089937
:100849000108D90208EE03091B04093A05095706EC
:1008590009660709E9080A11090A280A0A3D0B0A63
:100869006B110A94120AC01300000AD11211E9127D
:10087900121B1212AF50071212B85002804C7BFFA4
:100889007A0A79E012116B12121B750901020AD159
:1008990012127950081212AF400312128B121282EF
:1008A90050081212B840031212941212AF400302F8
:1008B9000AD11212B84003020AD112127940030276
:1008C9000AD11212824003020AD1750902020AD121
:1008D9001211E97BFF7A0A79FA12116B12121B7550
:1008E9000903020AD112111B8F111211368F12E559
:1008F9001164016005E512B40103750904E5116489
:10090900026009E51264026003020AD1750909024D
:100919000AD1E4FF1210FF1211E97BFF7A0B795D0E
:1009290012116B12121B7F1412001E750905020A9F
:10093900D11211FB12107E1211D68F08E50860033F
:100949001210FF750D50D205750906020AD130053E
:1009590006120FEF020AD1750904020AD11211E930
:10096900E50A14601214601714601C240370217BBB
:10097900FF7A0B797580167BFF7A0B7989800E7B5C
:10098900FF7A0B799D80067BFF7A0B79B112116B87
:10099900E50A6003B402317BFF7A0B79C512116B4A
:1009A9001211C3EF75F003A42440F582E4340CF569
:1009B90083E493FB740193FA740293F912116B7B2C
:1009C900FF7A0B79D412116B12121BE50A6003B47A
:1009D900030512129D80031212A6750908020AD195
:1009E9001212794003020AD11212824003020AD17B
:1009F9007509041212C150037509111212CA500364
:100A09007509127F14020ABB1211E97BFF7A0B796F
:100A1900D712116B12121B75090A7F3C020ABB120D
:100A290011E97BFF7A0B79F412116B12121B75090C
:100A39000B020AD1121279500912111BEF6003122D
:100A4900129D1212825009121136EF60031212A67A
:100A59001212C150037509111212CA506B7509128D
:100A690080661212795061121282505C1211E97B70
:100A7900FF7A0B79FA12116B7BFF7A0C7913121139
:100A89006B12121B7509137F648027121279503873
:100A990012128250331211E97BFF7A0C792A121152
:100AA9006B7BFF7A0C791312116B12121B750913E8
:100AB9007F6412001E801112111BEF64046006127C
:0F0AC9001136BF0403E4F5091210C31210A12265
:101059001212D31212D81212701211981212F5121A
:101069001182C204750B02C201D209D20AC205E477
:05107900F509F50C2251
:100FEF0012111B8F221211368F23E5227004E52375
:100FFF006028750907E522600F1211C3EFB52205AE
:10100F00E4F50A8003750A01E523600E1211C3EFA0
:0A101F00B52304750A0222750A03C6
:0110290022A4
:09127900E50E7003D38001C322CD
:09128200E50F7003D38001C322C3
:09128B001212E7750E0AC20022DE
:091294001212EC750F0AC20222CD
:09129D001212DD750E0AD20022C6
:0912A6001212E2750F0AD20222B5
:05001E00D2038F102247
:1010C3008580227F287E0012124FE522540FFFBF36
:0E10D3000F02D209E52254F0FFBFF002D20A4C
:0110E10022EC
:1010A10030041E300107C2011212FC800F120F74AE
:1010B100500A1212F9D201750B018003750B02C29D
:0210C100042207
:03001B00020E5979
:100E5900C0E0C0F0C083C082C0D075D000C000C05F
:100E690001C002C003C004C005C006C007D50D02F9
:100E7900C205D51002C203D50B02D204E50E6020CB
:100E8900150EE50E64096005E50EB404031212D3CC
:100E9900E50EB4050B3000051212DD80031212E7CE
:100EA900E50F6020150FE50F64096005E50FB4042F
:100EB900031212D8E50FB4050B3002051212E280B5
:100EC900031212ECD007D006D005D004D003D0020B
:0F0ED900D001D000D0D0D082D083D0F0D0E03282
:10002600BDD0B0DDB36FAC4FADFEB3A1A740AB7E84
:10003600AABABA71A6B13F0D0A412920A8BAA8C723
:10004600A67EA141A7DAADCCA440B05FB06CAABA37
:10005600A46BABC42020422920A470B8EAA46BABE1
:10006600C4A656AB65BDC42020432920B552A7516E
:10007600A448A9642020442920A7DAA569AFE0A4F2
:10008600A3B77CB752A7410D0A00312B322B332B75
:10009600342B352B372B382B392B3130203D203F55
:1000A6000D0A4129203535202042292031303020C3
:1000B600204329203439202044292034340D0A00D5
:1000C600BDD0B0DDADFEA440A6ECA4A3AC4FA5E622
:1000D600A46AB8EAA475A874AABAB1D0B1C228A510
:1000E6005DA774B0C6B1D0B1C2A142B0C6B1D0B19D
:1000F600C2293F0D0A412920B3AFBA61B3C72042D6
:100106002920AE7DBCA2A4A420432920B3C5A4DF28
:10011600AE6120442920B3B0BEE5ADB70D0A003468
:10012600203920352037203620352037205F0D0A2C
:10013600AEDABEDAA548A457AABABCC6A6432C5F57
:10014600AABABCC6A672B3CCA6B3A569AFE0AC4F3B
:100156000D0A412920332042292034204329203703
:1001660020442920380D0A00B171A5C1B0EA3538FE
:10017600A67EA548A8D3A141B1F6A6CBC1C9A4A421
:10018600A5E6A46AC4B9B458B3F5B0DA3F3F20284F
:10019600B4A3A5DC3A20A5E6A46AC4B9A4F1B8FBC9
:1001A600A668B3E12CB26E7E290D0A4129203135AD
:1001B6002D3137B3F52042292031382D3230B3F5B1
:1001C6002043292032312D3233B3F5204429203201
:1001D600342D3236B3F50D0A00B74CB342B27ABEAF
:1001E600F7B9EAC5E7A640A6B3B458ADD34C6162E9
:1001F6003F0D0A412920393920204229203439204F
:10020600204329203133202044292031300D0A0093
:10021600A5D8AB65A5DFA965A46ABFEFA640BFEF69
:10022600A558B458A4483F0D0A412920323235203A
:1002360042292032333420432920323435204429C0
:100246002031313320A4480D0A00A6D1A57EB3A3E0
:10025600AABEB944A141A578C657A6B3ADD3AAFC98
:10026600A8BDA473A143BDD0B0DDAAFCA8BDA473EC
:10027600A662ADFEADD3BFA4A5ABB0DA3F0D0A4171
:100286002920AB6EA7EB20422920A578AA46204359
:100296002920B9C5B87120442920B6B3AA4C0D0A45
:1002A60000506970656C696E696E672063616E20C7
:1002B600696D70726F76653F0D0A41292054687228
:1002C6006F75676870757420204229204350492055
:1002D60020432920446174612072617465202044A2
:1002E600292048617A617264730D0A003230313117
:1002F600A67E3132A4EB3139A4E9AAF7A5BFA4E959
:10030600B375A540A141BDD0B0DDA5D8AB65A54C60
:10031600AABAB1B5AF5AA448AC4F3F0D0A4129203D
:10032600AAF7A5BFADF520422920AAF7A5BFAEA61C
:1003360020432920AAF7A5BFA86B20442920B1692C
:10034600A6A8BF410D0A00A6B3A853A6B3A662C5C8
:10035600A5BA71B0DA3FA6B3A853A6B3B8F2A457AC
:10036600AC79A6E6B0DA3F3FBDD0B0DDA455A643D2
:10037600AABABDD6A4A3AC4FB773A448BA71A4E277
:100386003F3F0D0A412920ADB3C2A7A677204229D7
:1003960020A8F4A4E5B8A920432920ADA7A569ACF7
:1003A600B020442920A7F5A976B2B10D0A00A455BC
:1003B600A643ADFEA440ADD3B1C6A7C7BA74BAE290
:1003C600AA6BAABAA5ADA7A1AEC9B6A1BDC6C2F809
:1003D600ABD7A4A3AC4F4F286E6C6F676E290D0A7E
:1003E600412920717569636B20736F7274204229ED
:1003F6002073656C656374696F6E20736F72742009
:10040600432920726164697820736F7274204429CD
:10041600206D6572676520736F72740D0A00A455AE
:10042600A643ADFEA440ADD3B0DDC344AC4F646576
:1004360063696461626C653F0D0A41292048616CFD
:1004460074696E672070726F626C656D2042292038
:10045600706F737420636F72726573706F6E64650C
:100466006E63652070726F626C656D0D0A4329209C
:100476006120747572696E67206D616368696E6567
:100486002064657465726D696E657320776865684A
:100496007465722074776F20747572696E67206D4B
:1004A60061726368696E6573206172652065717536
:1004B600616C0D0A442920636C6971756520707240
:1004C6006F626C656D0D0A00B36FB76DB5AAB9435F
:1004D600C0B8AC4FADFEA440B2D5B0B5AABA203D67
:1004E600773D3F0D0A412920312042292032204301
:1004F600292031312043292031320D0A00A455AD7F
:10050600B1ADFEA440ADD3AD5EA4E5B3E6A672AB35
:10051600F7BFF9ADF9213F0D0A412920636F6C6FD2
:10052600757220422920657069736F6465204329BE
:10053600206469616C6F672044292066696E6E616C
:100546006C790D0A00A662574F57AABAAC47A8C6DF
:10055600A4A4A141ADFEA440A6ECAC4FB351BFF29A
:10056600A7D1AACCAABABBE2BEC9A4480D0A4129A2
:100576002053796C76616E6173204229205468722B
:10058600616C6C204329204D616C667572696F6ED3
:10059600204429204172746861730D0A00B3CCAA05
:1005A600F1A4F1B8FBA4A3A641B16ABDD5B36FAD62
:1005B600D3A446A141A4A3B94CC1D9AC4FAD6EADED
:1005C600ABB5F8C0F4AB4FA94DC0F4B9D2C4B3C3B0
:1005D60044B0DA21210D0ABDD0B0DDADFEA440AD98
:1005E600D3A4A3AC4FA578C657AB4FA87CC3FEB027
:1005F600CAAAABB0DA3F3F0D0A412920A578C657F3
:10060600B6C2BAB520422920C4E5AAE1B95FA76BF4
:10061600C24420432920A6CAA842B3442044292024
:10062600ACEFA473A5D20D0A00A5E6A46AB8EAA4A5
:1006360075A46ABEC7B3A1BEC7A5CDB371C3D1BEEB
:10064600C7A4C0C160A640A6B3A668A4D63F0D0A3B
:1006560041292031352020422920313820204329C4
:10066600203230202044292032320D0A00AD5EA40B
:10067600E5A657A672A4A3AFE0B6C3A8FA21212027
:10068600A6B3A8C7AD5EA4E5A672AC4FC5BCB8DCE0
:10069600A74321212020A455ADB1ADFEA440ADD382
:1006A600A657A672A6B3B0DDC3443F3F0D0A412943
:1006B6002057696C6C792042292047617279204362
:1006C600292045726963204429204A696C6C0D0A09
:1006D60000BDD0B0DDA662B4C1A4A4AABAB14DC310
:1006E60044BA63B751B3F8A769A4A4A141ADFEA467
:1006F60040BAD8B943C0B8A6B3A558B27BA1480D35
:100706000A4129204C4F4C20422920AA5AC3C3B97A
:1007160043C0B820432920A4D3B9AAB946A4482087
:10072600442920A5B4A661B9AB0D0A00A66EA6E2BF
:10073600AABABADEABA2ABA2A662B76AAFC1A87468
:10074600A457AABAA46BA5CDB7EDA740A455A4E2B9
:10075600A5D8BCD021210D0AA6AC4FA54CA4A3A4B4
:1007660070A4DFA7E2A440ADD3A86BA5CDA45DBF5E
:10077600EFB669A568A4462121BDD0B0DDAC4FBD5A
:10078600D6A94F3F3F0D0A412920A6B6AD59B74F0E
:1007960020422920AA4CAA59A97920432920C1C25E
:1007A600B561B57120442920C1E9B1D3B6AE0D0AB1
:1007B60000FF00260101FF00260202FF00260303B8
:1007C600FF00900300FF00C60400FF01250100FFA3
:1007D60000260303FF016E0200FF01DF0400FF0293
:1007E600160400FF02500300FF02A70100FF02F2F9
:1007F6000200FF034D0400FF03B40200FF002601C0
:1008060001FF04240400FF04CE0300FF05030400D7
:10081600FF054B0100FF05A30300FF062F0300FFA2
:1008260000260202FF06730100FF06D70400FF0739
:030836003203008A
:0412F500E4F51F22DB
:1011FB00E51F2401FFE433FE7C007D1A120DDE8D0A
:02120B001F22A0
:10107E001211E9E51F75F005A424B7F582E43407D3
:10108E00F583E493FB740193FA740293F912116BD6
:03109E0002121B20
:1011C300E51F75F005A424BAF582E43407F583E43A
:0311D30093FF2265
:1011D600E51F75F005A424BBF582E43407F583E426
:0311E60093FF2252
:0512D300D2B4D2B522E7
:0512D800D2B6D2B722DE
:0512DD00D2B4C2B522ED
:0512E200D2B6C2B722E4
:0512E700C2B4D2B522E3
:0512EC00C2B6D2B722DA
:0912AF00A2A44003D38001C32274
:0912B800A2A54003D38001C3226A
:0912C100A2A64003D38001C32260
:0912CA00A2A74003D38001C32256
:100D9800BB010689828A83E0225002E722BBFE0259
:090DA800E32289828A83E493228C
:100DB100BB010CE58229F582E5833AF583E02250F7
:100DC10006E92582F8E622BBFE06E92582F8E22241
:0D0DD100E58229F582E5833AF583E493225B
:100DDE00BC000BBE0029EF8DF084FFADF022E4CCF9
:100DEE00F875F008EF2FFFEE33FEEC33FCEE9DECC2
:100DFE00984005FCEE9DFE0FD5F0E9E4CEFD22ED08
:100E0E00F8F5F0EE8420D21CFEADF075F008EF2F51
:100E1E00FFED33FD4007985006D5F0F222C398FD42
:050E2E000FD5F0EA22DF
:100E3300D083D082F8E4937012740193700DA3A34E
:100E430093F8740193F5828883E473740293686062
:060E5300EFA3A3A380DF62
:00000001FF
